:100000000C9461000C9473000C9473000C947300B6
:100010000C9473000C9473000C9473000C94730094
:100020000C9473000C9473000C9473000C94730084
:100030000C9473000C9473000C9473000C94730074
:100040000C9432010C9473000C9473000C947300A4
:100050000C9473000C9473000C9473000C94730054
:100060000C9473000C94730000000008000201005F
:100070000003040700000000000000000102040863
:100080001020408001020408102001020408102002
:10009000040404040404040402020202020203032E
:1000A00003030303000000002300260029000000D2
:1000B0000000250028002B0000000000240027007D
:1000C0002A0011241FBECFEFD8E0DEBFCDBF21E054
:1000D000A0E0B1E001C01D92A531B207E1F70E9496
:1000E000D0020C94E0020C94000061E08DE00E94CC
:1000F000370262E082E00E94370282E00E94A6029C
:100100009093090180930801109204011092050157
:1001100010920601109207010895CF92DF92EF929C
:10012000FF920F931F930E947C0100910001109198
:10013000010120910201309103016B017C01C01A81
:10014000D10AE20AF30A48EEC41643E0D406E104F9
:10015000F10408F454C0609300017093010180938E
:1001600002019093030180910A0190910B01892B68
:1001700039F481E090E090930B0180930A0104C070
:1001800010920B0110920A0160910A018DE00E9409
:1001900070028091040181110DC0809105018111CF
:1001A0000FC08091060181110BC080910701811160
:1001B00007C025C0181624F48150809304011FC085
:1001C00089E08093040190910501191624F491505F
:1001D0009093050114C095E090930501909106015C
:1001E000191624F491509093060109C080930601DA
:1001F0008091070118161CF481508093070182E05A
:100200000E94A602892BE1F48091080190910901D6
:10021000019789F480910601893024F48F5F8093DF
:10022000060109C0109206018091070189301CF473
:100230008F5F80930701109209011092080106C098
:1002400081E090E0909309018093080162E370E0FF
:1002500080E090E01F910F91FF90EF90DF90CF90A2
:100260000C94AB011F920F920FB60F9211242F9393
:100270003F938F939F93AF93BF9380910D01909184
:100280000E01A0910F01B091100130910C0123E0FB
:10029000230F2D3720F40196A11DB11D05C026E8BE
:1002A000230F0296A11DB11D20930C0180930D0117
:1002B00090930E01A0930F01B09310018091110152
:1002C00090911201A0911301B09114010196A11D0A
:1002D000B11D8093110190931201A0931301B0936B
:1002E0001401BF91AF919F918F913F912F910F90EA
:1002F0000FBE0F901F9018952FB7F89460910D01C5
:1003000070910E0180910F01909110012FBF0895FF
:100310003FB7F8948091110190911201A0911301BF
:10032000B091140126B5A89B05C02F3F19F0019686
:10033000A11DB11D3FBF6627782F892F9A2F620F0D
:10034000711D811D911D42E0660F771F881F991F47
:100350004A95D1F70895CF92DF92EF92FF92CF9313
:10036000DF936B017C010E948801EB01C114D10471
:10037000E104F10489F00E94DF020E9488016C1BF5
:100380007D0B683E734090F381E0C81AD108E10804
:10039000F108C851DC4FEACFDF91CF91FF90EF9089
:1003A000DF90CF900895789484B5826084BD84B541
:1003B000816084BD85B5826085BD85B5816085BD60
:1003C000EEE6F0E0808181608083E1E8F0E0108279
:1003D000808182608083808181608083E0E8F0E0BA
:1003E000808181608083E1EBF0E0808184608083A4
:1003F000E0EBF0E0808181608083EAE7F0E08081DB
:10040000846080838081826080838081816080833A
:100410008081806880831092C1000895833081F0CC
:1004200028F4813099F08230A1F008958730A9F046
:100430008830B9F08430D1F4809180008F7D03C082
:10044000809180008F7780938000089584B58F77A6
:1004500002C084B58F7D84BD08958091B0008F77F0
:1004600003C08091B0008F7D8093B0000895CF933A
:10047000DF9390E0FC01E458FF4F2491FC01E0572A
:10048000FF4F8491882349F190E0880F991FFC0168
:10049000E854FF4FA591B49182559F4FFC01C5913F
:1004A000D4919FB7611108C0F8948C912095822354
:1004B0008C93888182230AC0623051F4F8948C9125
:1004C000322F309583238C938881822B888304C0BC
:1004D000F8948C91822B8C939FBFDF91CF910895DC
:1004E0000F931F93CF93DF931F92CDB7DEB7282FC3
:1004F00030E0F901E859FF4F8491F901E458FF4FCA
:100500001491F901E057FF4F04910023C9F08823AB
:1005100021F069830E940E026981E02FF0E0EE0F66
:10052000FF1FE255FF4FA591B4919FB7F8948C91AE
:10053000611103C01095812301C0812B8C939FBF53
:100540000F90DF91CF911F910F910895CF93DF937B
:10055000282F30E0F901E859FF4F8491F901E45860
:10056000FF4FD491F901E057FF4FC491CC2391F094
:1005700081110E940E02EC2FF0E0EE0FFF1FEC55F0
:10058000FF4FA591B4912C912D2381E090E021F4AF
:1005900080E002C080E090E0DF91CF91089508955F
:1005A0000E94D3010E94CF020E947500C0E0D0E0FB
:1005B0000E948D002097E1F30E940000F9CF08957A
:0405C000F894FFCFDD
:00000001FF
